{
  "address": "0x7969c5eD335650692Bc04293B07F5BF2e7A673C0",
  "abi": [
    {
      "inputs": [
        {
          "internalType": "contract IERC20",
          "name": "_stakedToken",
          "type": "address"
        },
        {
          "internalType": "uint256",
          "name": "_rewardPerBlock",
          "type": "uint256"
        },
        {
          "internalType": "contract IERC20",
          "name": "_token",
          "type": "address"
        }
      ],
      "stateMutability": "nonpayable",
      "type": "constructor"
    },
    {
      "anonymous": false,
      "inputs": [
        {
          "indexed": true,
          "internalType": "address",
          "name": "user",
          "type": "address"
        },
        {
          "indexed": false,
          "internalType": "uint256",
          "name": "amount",
          "type": "uint256"
        }
      ],
      "name": "Claim",
      "type": "event"
    },
    {
      "anonymous": false,
      "inputs": [
        {
          "indexed": true,
          "internalType": "address",
          "name": "previousOwner",
          "type": "address"
        },
        {
          "indexed": true,
          "internalType": "address",
          "name": "newOwner",
          "type": "address"
        }
      ],
      "name": "OwnershipTransferred",
      "type": "event"
    },
    {
      "anonymous": false,
      "inputs": [
        {
          "indexed": true,
          "internalType": "address",
          "name": "user",
          "type": "address"
        },
        {
          "indexed": false,
          "internalType": "uint256",
          "name": "amount",
          "type": "uint256"
        }
      ],
      "name": "Stake",
      "type": "event"
    },
    {
      "anonymous": false,
      "inputs": [
        {
          "indexed": true,
          "internalType": "address",
          "name": "user",
          "type": "address"
        },
        {
          "indexed": false,
          "internalType": "uint256",
          "name": "amount",
          "type": "uint256"
        }
      ],
      "name": "UnStaked",
      "type": "event"
    },
    {
      "inputs": [],
      "name": "accRewardPerShare",
      "outputs": [
        {
          "internalType": "uint256",
          "name": "",
          "type": "uint256"
        }
      ],
      "stateMutability": "view",
      "type": "function"
    },
    {
      "inputs": [],
      "name": "claim",
      "outputs": [],
      "stateMutability": "nonpayable",
      "type": "function"
    },
    {
      "inputs": [],
      "name": "distributeReward",
      "outputs": [],
      "stateMutability": "nonpayable",
      "type": "function"
    },
    {
      "inputs": [
        {
          "internalType": "uint256",
          "name": "_from",
          "type": "uint256"
        },
        {
          "internalType": "uint256",
          "name": "_to",
          "type": "uint256"
        }
      ],
      "name": "getReward",
      "outputs": [
        {
          "internalType": "uint256",
          "name": "",
          "type": "uint256"
        }
      ],
      "stateMutability": "view",
      "type": "function"
    },
    {
      "inputs": [],
      "name": "lastRewardBlock",
      "outputs": [
        {
          "internalType": "uint256",
          "name": "",
          "type": "uint256"
        }
      ],
      "stateMutability": "view",
      "type": "function"
    },
    {
      "inputs": [],
      "name": "owner",
      "outputs": [
        {
          "internalType": "address",
          "name": "",
          "type": "address"
        }
      ],
      "stateMutability": "view",
      "type": "function"
    },
    {
      "inputs": [],
      "name": "pendingReward",
      "outputs": [
        {
          "internalType": "uint256",
          "name": "",
          "type": "uint256"
        }
      ],
      "stateMutability": "view",
      "type": "function"
    },
    {
      "inputs": [],
      "name": "renounceOwnership",
      "outputs": [],
      "stateMutability": "nonpayable",
      "type": "function"
    },
    {
      "inputs": [],
      "name": "rewardPerBlock",
      "outputs": [
        {
          "internalType": "uint256",
          "name": "",
          "type": "uint256"
        }
      ],
      "stateMutability": "view",
      "type": "function"
    },
    {
      "inputs": [],
      "name": "router",
      "outputs": [
        {
          "internalType": "contract IUniswapV2Router02",
          "name": "",
          "type": "address"
        }
      ],
      "stateMutability": "view",
      "type": "function"
    },
    {
      "inputs": [
        {
          "internalType": "uint256",
          "name": "_rewardPerBlock",
          "type": "uint256"
        }
      ],
      "name": "setRewardPerBlock",
      "outputs": [],
      "stateMutability": "nonpayable",
      "type": "function"
    },
    {
      "inputs": [
        {
          "internalType": "uint256",
          "name": "_amountOutMin",
          "type": "uint256"
        },
        {
          "internalType": "uint256",
          "name": "_deadline",
          "type": "uint256"
        },
        {
          "internalType": "uint256",
          "name": "_amountTokenMin",
          "type": "uint256"
        },
        {
          "internalType": "uint256",
          "name": "_amountETHMin",
          "type": "uint256"
        }
      ],
      "name": "speedStake",
      "outputs": [],
      "stateMutability": "payable",
      "type": "function"
    },
    {
      "inputs": [
        {
          "internalType": "uint256",
          "name": "_amount",
          "type": "uint256"
        }
      ],
      "name": "stake",
      "outputs": [],
      "stateMutability": "nonpayable",
      "type": "function"
    },
    {
      "inputs": [],
      "name": "stakedToken",
      "outputs": [
        {
          "internalType": "contract IERC20",
          "name": "",
          "type": "address"
        }
      ],
      "stateMutability": "view",
      "type": "function"
    },
    {
      "inputs": [],
      "name": "token",
      "outputs": [
        {
          "internalType": "contract IERC20",
          "name": "",
          "type": "address"
        }
      ],
      "stateMutability": "view",
      "type": "function"
    },
    {
      "inputs": [],
      "name": "totalStaked",
      "outputs": [
        {
          "internalType": "uint256",
          "name": "",
          "type": "uint256"
        }
      ],
      "stateMutability": "view",
      "type": "function"
    },
    {
      "inputs": [
        {
          "internalType": "address",
          "name": "newOwner",
          "type": "address"
        }
      ],
      "name": "transferOwnership",
      "outputs": [],
      "stateMutability": "nonpayable",
      "type": "function"
    },
    {
      "inputs": [
        {
          "internalType": "uint256",
          "name": "_amount",
          "type": "uint256"
        }
      ],
      "name": "unStake",
      "outputs": [],
      "stateMutability": "nonpayable",
      "type": "function"
    },
    {
      "inputs": [
        {
          "internalType": "address",
          "name": "",
          "type": "address"
        }
      ],
      "name": "userInfo",
      "outputs": [
        {
          "internalType": "uint256",
          "name": "amount",
          "type": "uint256"
        },
        {
          "internalType": "uint256",
          "name": "rewardDebt",
          "type": "uint256"
        }
      ],
      "stateMutability": "view",
      "type": "function"
    }
  ],
  "transactionHash": "0x0ac42c116951407a49f73972b1cae3fc94820244a048f904143730f3d637b3f8",
  "args": [
    "0xCD8a1C3ba11CF5ECfa6267617243239504a98d90",
    "1000000000000000000",
    "0x14Ffbe5b0E18EF6209e5a92a8F7213335651B97e"
  ],
  "solcInputHash": "cfa3980ddc942130cfb3ba8b1f9ff943",
  "bytecode": "0x60806040523480156200001157600080fd5b50604051620026f9380380620026f9833981810160405281019062000037919062000238565b620000576200004b6200013e60201b60201c565b6200014660201b60201c565b82600760006101000a81548173ffffffffffffffffffffffffffffffffffffffff021916908373ffffffffffffffffffffffffffffffffffffffff1602179055508160028190555080600660006101000a81548173ffffffffffffffffffffffffffffffffffffffff021916908373ffffffffffffffffffffffffffffffffffffffff160217905550737a250d5630b4cf539739df2c5dacb4c659f2488d600860006101000a81548173ffffffffffffffffffffffffffffffffffffffff021916908373ffffffffffffffffffffffffffffffffffffffff1602179055505050506200031f565b600033905090565b60008060009054906101000a900473ffffffffffffffffffffffffffffffffffffffff169050816000806101000a81548173ffffffffffffffffffffffffffffffffffffffff021916908373ffffffffffffffffffffffffffffffffffffffff1602179055508173ffffffffffffffffffffffffffffffffffffffff168173ffffffffffffffffffffffffffffffffffffffff167f8be0079c531659141344cd1fd0a4f28419497f9722a3daafe3b4186f6b6457e060405160405180910390a35050565b6000815190506200021b81620002eb565b92915050565b600081519050620002328162000305565b92915050565b600080600060608486031215620002545762000253620002e6565b5b600062000264868287016200020a565b9350506020620002778682870162000221565b92505060406200028a868287016200020a565b9150509250925092565b6000620002a182620002bc565b9050919050565b6000620002b58262000294565b9050919050565b600073ffffffffffffffffffffffffffffffffffffffff82169050919050565b6000819050919050565b600080fd5b620002f681620002a8565b81146200030257600080fd5b50565b6200031081620002dc565b81146200031c57600080fd5b50565b6123ca806200032f6000396000f3fe6080604052600436106101145760003560e01c80638f73c5ae116100a0578063bb872b4a11610064578063bb872b4a14610349578063cc7a262e14610372578063f2fde38b1461039d578063f887ea40146103c6578063fc0c546a146103f157610114565b80638f73c5ae14610276578063939d62371461028d578063a694fc3a146102b8578063a9f8d181146102e1578063b90bc5191461030c57610114565b80635d3eea91116100e75780635d3eea91146101b5578063715018a6146101de578063817b1cd2146101f55780638ae39cac146102205780638da5cb5b1461024b57610114565b8063137ee36e146101195780631959a00214610144578063464d9409146101825780634e71d92d1461019e575b600080fd5b34801561012557600080fd5b5061012e61041c565b60405161013b9190611db1565b60405180910390f35b34801561015057600080fd5b5061016b600480360381019061016691906117b2565b6104e9565b604051610179929190611e18565b60405180910390f35b61019c60048036038101906101979190611942565b61050d565b005b3480156101aa57600080fd5b506101b3610906565b005b3480156101c157600080fd5b506101dc60048036038101906101d79190611855565b610986565b005b3480156101ea57600080fd5b506101f3610a44565b005b34801561020157600080fd5b5061020a610acc565b6040516102179190611db1565b60405180910390f35b34801561022c57600080fd5b50610235610ad2565b6040516102429190611db1565b60405180910390f35b34801561025757600080fd5b50610260610ad8565b60405161026d9190611bbd565b60405180910390f35b34801561028257600080fd5b5061028b610b01565b005b34801561029957600080fd5b506102a2610b6d565b6040516102af9190611db1565b60405180910390f35b3480156102c457600080fd5b506102df60048036038101906102da9190611855565b610b73565b005b3480156102ed57600080fd5b506102f6610bd6565b6040516103039190611db1565b60405180910390f35b34801561031857600080fd5b50610333600480360381019061032e91906118af565b610bdc565b6040516103409190611db1565b60405180910390f35b34801561035557600080fd5b50610370600480360381019061036b9190611855565b610bff565b005b34801561037e57600080fd5b50610387610c8d565b6040516103949190611c99565b60405180910390f35b3480156103a957600080fd5b506103c460048036038101906103bf91906117b2565b610cb3565b005b3480156103d257600080fd5b506103db610dab565b6040516103e89190611cb4565b60405180910390f35b3480156103fd57600080fd5b50610406610dd1565b6040516104139190611c99565b60405180910390f35b600080600560003373ffffffffffffffffffffffffffffffffffffffff1673ffffffffffffffffffffffffffffffffffffffff168152602001908152602001600020604051806040016040529081600082015481526020016001820154815250509050806020015164e8d4a5100060045464e8d4a5100061049f60035443610bdc565b6104a99190611f84565b6104b39190611f53565b6001546104c09190611efd565b83600001516104cf9190611f84565b6104d99190611f53565b6104e39190611fde565b91505090565b60056020528060005260406000206000915090508060000154908060010154905082565b610515610b01565b60606000600267ffffffffffffffff81111561053457610533612193565b5b6040519080825280602002602001820160405280156105625781602001602082028036833780820191505090505b50905073c02aaa39b223fe8d0a0e5c4f27ead9083c756cc28160008151811061058e5761058d612164565b5b602002602001019073ffffffffffffffffffffffffffffffffffffffff16908173ffffffffffffffffffffffffffffffffffffffff1681525050600660009054906101000a900473ffffffffffffffffffffffffffffffffffffffff16816001815181106105ff576105fe612164565b5b602002602001019073ffffffffffffffffffffffffffffffffffffffff16908173ffffffffffffffffffffffffffffffffffffffff1681525050600860009054906101000a900473ffffffffffffffffffffffffffffffffffffffff1673ffffffffffffffffffffffffffffffffffffffff16637ff36ab56002346106849190611f53565b8884308a6040518663ffffffff1660e01b81526004016106a79493929190611dcc565b6000604051808303818588803b1580156106c057600080fd5b505af11580156106d4573d6000803e3d6000fd5b50505050506040513d6000823e3d601f19601f820116820180604052508101906106fe91906117df565b9150600660009054906101000a900473ffffffffffffffffffffffffffffffffffffffff1673ffffffffffffffffffffffffffffffffffffffff1663095ea7b3600860009054906101000a900473ffffffffffffffffffffffffffffffffffffffff168460018151811061077557610774612164565b5b60200260200101516040518363ffffffff1660e01b815260040161079a929190611c0f565b602060405180830381600087803b1580156107b457600080fd5b505af11580156107c8573d6000803e3d6000fd5b505050506040513d601f19601f820116820180604052508101906107ec9190611828565b506000600860009054906101000a900473ffffffffffffffffffffffffffffffffffffffff1673ffffffffffffffffffffffffffffffffffffffff1663f305d71960023461083a9190611f53565b600660009054906101000a900473ffffffffffffffffffffffffffffffffffffffff168660018151811061087157610870612164565b5b60200260200101518989308d6040518863ffffffff1660e01b815260040161089e96959493929190611c38565b6060604051808303818588803b1580156108b757600080fd5b505af11580156108cb573d6000803e3d6000fd5b50505050506040513d601f19601f820116820180604052508101906108f091906118ef565b925050506108fd81610df7565b50505050505050565b6000600560003373ffffffffffffffffffffffffffffffffffffffff1673ffffffffffffffffffffffffffffffffffffffff1681526020019081526020016000209050610951610b01565b610959610ef2565b64e8d4a5100060015482600001546109719190611f84565b61097b9190611f53565b816001018190555050565b6000600560003373ffffffffffffffffffffffffffffffffffffffff1673ffffffffffffffffffffffffffffffffffffffff1681526020019081526020016000206040518060400160405290816000820154815260200160018201548152505090508181600001511015610a2f576040517f08c379a0000000000000000000000000000000000000000000000000000000008152600401610a2690611d31565b60405180910390fd5b610a37610b01565b610a4082610fc6565b5050565b610a4c61110e565b73ffffffffffffffffffffffffffffffffffffffff16610a6a610ad8565b73ffffffffffffffffffffffffffffffffffffffff1614610ac0576040517f08c379a0000000000000000000000000000000000000000000000000000000008152600401610ab790611d51565b60405180910390fd5b610aca6000611116565b565b60045481565b60025481565b60008060009054906101000a900473ffffffffffffffffffffffffffffffffffffffff16905090565b600354431015610b1057610b6b565b60006004541415610b275743600381905550610b6b565b60045464e8d4a51000610b3c60035443610bdc565b610b469190611f84565b610b509190611f53565b600154610b5d9190611efd565b600181905550436003819055505b565b60015481565b610b7b610b01565b610bca333083600760009054906101000a900473ffffffffffffffffffffffffffffffffffffffff1673ffffffffffffffffffffffffffffffffffffffff166111da909392919063ffffffff16565b610bd381610df7565b50565b60035481565b60008282610bea9190611fde565b600254610bf79190611f84565b905092915050565b610c0761110e565b73ffffffffffffffffffffffffffffffffffffffff16610c25610ad8565b73ffffffffffffffffffffffffffffffffffffffff1614610c7b576040517f08c379a0000000000000000000000000000000000000000000000000000000008152600401610c7290611d51565b60405180910390fd5b610c83610b01565b8060028190555050565b600760009054906101000a900473ffffffffffffffffffffffffffffffffffffffff1681565b610cbb61110e565b73ffffffffffffffffffffffffffffffffffffffff16610cd9610ad8565b73ffffffffffffffffffffffffffffffffffffffff1614610d2f576040517f08c379a0000000000000000000000000000000000000000000000000000000008152600401610d2690611d51565b60405180910390fd5b600073ffffffffffffffffffffffffffffffffffffffff168173ffffffffffffffffffffffffffffffffffffffff161415610d9f576040517f08c379a0000000000000000000000000000000000000000000000000000000008152600401610d9690611cf1565b60405180910390fd5b610da881611116565b50565b600860009054906101000a900473ffffffffffffffffffffffffffffffffffffffff1681565b600660009054906101000a900473ffffffffffffffffffffffffffffffffffffffff1681565b6000600560003373ffffffffffffffffffffffffffffffffffffffff1673ffffffffffffffffffffffffffffffffffffffff1681526020019081526020016000209050610e42610ef2565b81816000016000828254610e569190611efd565b925050819055508160046000828254610e6f9190611efd565b9250508190555064e8d4a510006001548260000154610e8e9190611f84565b610e989190611f53565b81600101819055503373ffffffffffffffffffffffffffffffffffffffff167febedb8b3c678666e7f36970bc8f57abf6d8fa2e828c0da91ea5b75bf68ed101a83604051610ee69190611db1565b60405180910390a25050565b6000600560003373ffffffffffffffffffffffffffffffffffffffff1673ffffffffffffffffffffffffffffffffffffffff16815260200190815260200160002090506000816001015464e8d4a510006001548460000154610f549190611f84565b610f5e9190611f53565b610f689190611fde565b9050610f743382611263565b3373ffffffffffffffffffffffffffffffffffffffff167f47cee97cb7acd717b3c0aa1435d004cd5b3c8c57d70dbceb4e4458bbd60e39d482604051610fba9190611db1565b60405180910390a25050565b6000600560003373ffffffffffffffffffffffffffffffffffffffff1673ffffffffffffffffffffffffffffffffffffffff1681526020019081526020016000209050611011610ef2565b818160000160008282546110259190611fde565b92505081905550816004600082825461103e9190611fde565b9250508190555064e8d4a51000600154826000015461105d9190611f84565b6110679190611f53565b81600101819055506110bc3383600760009054906101000a900473ffffffffffffffffffffffffffffffffffffffff1673ffffffffffffffffffffffffffffffffffffffff166113cd9092919063ffffffff16565b3373ffffffffffffffffffffffffffffffffffffffff167f79d3df6837cc49ff0e09fd3258e6e45594e0703445bb06825e9d75156eaee8f0836040516111029190611db1565b60405180910390a25050565b600033905090565b60008060009054906101000a900473ffffffffffffffffffffffffffffffffffffffff169050816000806101000a81548173ffffffffffffffffffffffffffffffffffffffff021916908373ffffffffffffffffffffffffffffffffffffffff1602179055508173ffffffffffffffffffffffffffffffffffffffff168173ffffffffffffffffffffffffffffffffffffffff167f8be0079c531659141344cd1fd0a4f28419497f9722a3daafe3b4186f6b6457e060405160405180910390a35050565b61125d846323b872dd60e01b8585856040516024016111fb93929190611bd8565b604051602081830303815290604052907bffffffffffffffffffffffffffffffffffffffffffffffffffffffff19166020820180517bffffffffffffffffffffffffffffffffffffffffffffffffffffffff8381831617835250505050611453565b50505050565b6000600454600760009054906101000a900473ffffffffffffffffffffffffffffffffffffffff1673ffffffffffffffffffffffffffffffffffffffff166370a08231306040518263ffffffff1660e01b81526004016112c39190611bbd565b60206040518083038186803b1580156112db57600080fd5b505afa1580156112ef573d6000803e3d6000fd5b505050506040513d601f19601f820116820180604052508101906113139190611882565b61131d9190611fde565b90508082111561137a576113748382600760009054906101000a900473ffffffffffffffffffffffffffffffffffffffff1673ffffffffffffffffffffffffffffffffffffffff166113cd9092919063ffffffff16565b506113c9565b6113c78383600760009054906101000a900473ffffffffffffffffffffffffffffffffffffffff1673ffffffffffffffffffffffffffffffffffffffff166113cd9092919063ffffffff16565b505b5050565b61144e8363a9059cbb60e01b84846040516024016113ec929190611c0f565b604051602081830303815290604052907bffffffffffffffffffffffffffffffffffffffffffffffffffffffff19166020820180517bffffffffffffffffffffffffffffffffffffffffffffffffffffffff8381831617835250505050611453565b505050565b60006114b5826040518060400160405280602081526020017f5361666545524332303a206c6f772d6c6576656c2063616c6c206661696c65648152508573ffffffffffffffffffffffffffffffffffffffff1661151a9092919063ffffffff16565b905060008151111561151557808060200190518101906114d59190611828565b611514576040517f08c379a000000000000000000000000000000000000000000000000000000000815260040161150b90611d91565b60405180910390fd5b5b505050565b60606115298484600085611532565b90509392505050565b606082471015611577576040517f08c379a000000000000000000000000000000000000000000000000000000000815260040161156e90611d11565b60405180910390fd5b61158085611646565b6115bf576040517f08c379a00000000000000000000000000000000000000000000000000000000081526004016115b690611d71565b60405180910390fd5b6000808673ffffffffffffffffffffffffffffffffffffffff1685876040516115e89190611ba6565b60006040518083038185875af1925050503d8060008114611625576040519150601f19603f3d011682016040523d82523d6000602084013e61162a565b606091505b509150915061163a828286611659565b92505050949350505050565b600080823b905060008111915050919050565b60608315611669578290506116b9565b60008351111561167c5782518084602001fd5b816040517f08c379a00000000000000000000000000000000000000000000000000000000081526004016116b09190611ccf565b60405180910390fd5b9392505050565b60006116d36116ce84611e66565b611e41565b905080838252602082019050828560208602820111156116f6576116f56121c7565b5b60005b85811015611726578161170c888261179d565b8452602084019350602083019250506001810190506116f9565b5050509392505050565b60008135905061173f8161234f565b92915050565b600082601f83011261175a576117596121c2565b5b815161176a8482602086016116c0565b91505092915050565b60008151905061178281612366565b92915050565b6000813590506117978161237d565b92915050565b6000815190506117ac8161237d565b92915050565b6000602082840312156117c8576117c76121d1565b5b60006117d684828501611730565b91505092915050565b6000602082840312156117f5576117f46121d1565b5b600082015167ffffffffffffffff811115611813576118126121cc565b5b61181f84828501611745565b91505092915050565b60006020828403121561183e5761183d6121d1565b5b600061184c84828501611773565b91505092915050565b60006020828403121561186b5761186a6121d1565b5b600061187984828501611788565b91505092915050565b600060208284031215611898576118976121d1565b5b60006118a68482850161179d565b91505092915050565b600080604083850312156118c6576118c56121d1565b5b60006118d485828601611788565b92505060206118e585828601611788565b9150509250929050565b600080600060608486031215611908576119076121d1565b5b60006119168682870161179d565b93505060206119278682870161179d565b92505060406119388682870161179d565b9150509250925092565b6000806000806080858703121561195c5761195b6121d1565b5b600061196a87828801611788565b945050602061197b87828801611788565b935050604061198c87828801611788565b925050606061199d87828801611788565b91505092959194509250565b60006119b583836119c1565b60208301905092915050565b6119ca81612012565b82525050565b6119d981612012565b82525050565b60006119ea82611ea2565b6119f48185611ed0565b93506119ff83611e92565b8060005b83811015611a30578151611a1788826119a9565b9750611a2283611ec3565b925050600181019050611a03565b5085935050505092915050565b6000611a4882611ead565b611a528185611ee1565b9350611a628185602086016120a2565b80840191505092915050565b611a778161205a565b82525050565b611a868161207e565b82525050565b6000611a9782611eb8565b611aa18185611eec565b9350611ab18185602086016120a2565b611aba816121d6565b840191505092915050565b6000611ad2602683611eec565b9150611add826121e7565b604082019050919050565b6000611af5602683611eec565b9150611b0082612236565b604082019050919050565b6000611b18601383611eec565b9150611b2382612285565b602082019050919050565b6000611b3b602083611eec565b9150611b46826122ae565b602082019050919050565b6000611b5e601d83611eec565b9150611b69826122d7565b602082019050919050565b6000611b81602a83611eec565b9150611b8c82612300565b604082019050919050565b611ba081612050565b82525050565b6000611bb28284611a3d565b915081905092915050565b6000602082019050611bd260008301846119d0565b92915050565b6000606082019050611bed60008301866119d0565b611bfa60208301856119d0565b611c076040830184611b97565b949350505050565b6000604082019050611c2460008301856119d0565b611c316020830184611b97565b9392505050565b600060c082019050611c4d60008301896119d0565b611c5a6020830188611b97565b611c676040830187611b97565b611c746060830186611b97565b611c8160808301856119d0565b611c8e60a0830184611b97565b979650505050505050565b6000602082019050611cae6000830184611a6e565b92915050565b6000602082019050611cc96000830184611a7d565b92915050565b60006020820190508181036000830152611ce98184611a8c565b905092915050565b60006020820190508181036000830152611d0a81611ac5565b9050919050565b60006020820190508181036000830152611d2a81611ae8565b9050919050565b60006020820190508181036000830152611d4a81611b0b565b9050919050565b60006020820190508181036000830152611d6a81611b2e565b9050919050565b60006020820190508181036000830152611d8a81611b51565b9050919050565b60006020820190508181036000830152611daa81611b74565b9050919050565b6000602082019050611dc66000830184611b97565b92915050565b6000608082019050611de16000830187611b97565b8181036020830152611df381866119df565b9050611e0260408301856119d0565b611e0f6060830184611b97565b95945050505050565b6000604082019050611e2d6000830185611b97565b611e3a6020830184611b97565b9392505050565b6000611e4b611e5c565b9050611e5782826120d5565b919050565b6000604051905090565b600067ffffffffffffffff821115611e8157611e80612193565b5b602082029050602081019050919050565b6000819050602082019050919050565b600081519050919050565b600081519050919050565b600081519050919050565b6000602082019050919050565b600082825260208201905092915050565b600081905092915050565b600082825260208201905092915050565b6000611f0882612050565b9150611f1383612050565b9250827fffffffffffffffffffffffffffffffffffffffffffffffffffffffffffffffff03821115611f4857611f47612106565b5b828201905092915050565b6000611f5e82612050565b9150611f6983612050565b925082611f7957611f78612135565b5b828204905092915050565b6000611f8f82612050565b9150611f9a83612050565b9250817fffffffffffffffffffffffffffffffffffffffffffffffffffffffffffffffff0483118215151615611fd357611fd2612106565b5b828202905092915050565b6000611fe982612050565b9150611ff483612050565b92508282101561200757612006612106565b5b828203905092915050565b600061201d82612030565b9050919050565b60008115159050919050565b600073ffffffffffffffffffffffffffffffffffffffff82169050919050565b6000819050919050565b60006120658261206c565b9050919050565b600061207782612030565b9050919050565b600061208982612090565b9050919050565b600061209b82612030565b9050919050565b60005b838110156120c05780820151818401526020810190506120a5565b838111156120cf576000848401525b50505050565b6120de826121d6565b810181811067ffffffffffffffff821117156120fd576120fc612193565b5b80604052505050565b7f4e487b7100000000000000000000000000000000000000000000000000000000600052601160045260246000fd5b7f4e487b7100000000000000000000000000000000000000000000000000000000600052601260045260246000fd5b7f4e487b7100000000000000000000000000000000000000000000000000000000600052603260045260246000fd5b7f4e487b7100000000000000000000000000000000000000000000000000000000600052604160045260246000fd5b600080fd5b600080fd5b600080fd5b600080fd5b6000601f19601f8301169050919050565b7f4f776e61626c653a206e6577206f776e657220697320746865207a65726f206160008201527f6464726573730000000000000000000000000000000000000000000000000000602082015250565b7f416464726573733a20696e73756666696369656e742062616c616e636520666f60008201527f722063616c6c0000000000000000000000000000000000000000000000000000602082015250565b7f5374616b696e673a3a62616420616374696f6e00000000000000000000000000600082015250565b7f4f776e61626c653a2063616c6c6572206973206e6f7420746865206f776e6572600082015250565b7f416464726573733a2063616c6c20746f206e6f6e2d636f6e7472616374000000600082015250565b7f5361666545524332303a204552433230206f7065726174696f6e20646964206e60008201527f6f74207375636365656400000000000000000000000000000000000000000000602082015250565b61235881612012565b811461236357600080fd5b50565b61236f81612024565b811461237a57600080fd5b50565b61238681612050565b811461239157600080fd5b5056fea2646970667358221220ca91d6e40a75de8d64b2c89cf1f4352005ca9b824d28bcc85020fd7b66ffb4c764736f6c63430008060033",
  "devdoc": {
    "kind": "dev",
    "methods": {
      "owner()": {
        "details": "Returns the address of the current owner."
      },
      "renounceOwnership()": {
        "details": "Leaves the contract without owner. It will not be possible to call `onlyOwner` functions anymore. Can only be called by the current owner. NOTE: Renouncing ownership will leave the contract without an owner, thereby removing any functionality that is only available to the owner."
      },
      "transferOwnership(address)": {
        "details": "Transfers ownership of the contract to a new account (`newOwner`). Can only be called by the current owner."
      }
    },
    "version": 1
  },
  "userdoc": {
    "kind": "user",
    "methods": {},
    "version": 1
  },
  "storageLayout": {
    "storage": [
      {
        "astId": 7,
        "contract": "contracts/Staking.sol:Staking",
        "label": "_owner",
        "offset": 0,
        "slot": "0",
        "type": "t_address"
      },
      {
        "astId": 1200,
        "contract": "contracts/Staking.sol:Staking",
        "label": "accRewardPerShare",
        "offset": 0,
        "slot": "1",
        "type": "t_uint256"
      },
      {
        "astId": 1202,
        "contract": "contracts/Staking.sol:Staking",
        "label": "rewardPerBlock",
        "offset": 0,
        "slot": "2",
        "type": "t_uint256"
      },
      {
        "astId": 1204,
        "contract": "contracts/Staking.sol:Staking",
        "label": "lastRewardBlock",
        "offset": 0,
        "slot": "3",
        "type": "t_uint256"
      },
      {
        "astId": 1206,
        "contract": "contracts/Staking.sol:Staking",
        "label": "totalStaked",
        "offset": 0,
        "slot": "4",
        "type": "t_uint256"
      },
      {
        "astId": 1211,
        "contract": "contracts/Staking.sol:Staking",
        "label": "userInfo",
        "offset": 0,
        "slot": "5",
        "type": "t_mapping(t_address,t_struct(UserInfo)1198_storage)"
      },
      {
        "astId": 1214,
        "contract": "contracts/Staking.sol:Staking",
        "label": "token",
        "offset": 0,
        "slot": "6",
        "type": "t_contract(IERC20)181"
      },
      {
        "astId": 1217,
        "contract": "contracts/Staking.sol:Staking",
        "label": "stakedToken",
        "offset": 0,
        "slot": "7",
        "type": "t_contract(IERC20)181"
      },
      {
        "astId": 1220,
        "contract": "contracts/Staking.sol:Staking",
        "label": "router",
        "offset": 0,
        "slot": "8",
        "type": "t_contract(IUniswapV2Router02)1181"
      }
    ],
    "types": {
      "t_address": {
        "encoding": "inplace",
        "label": "address",
        "numberOfBytes": "20"
      },
      "t_contract(IERC20)181": {
        "encoding": "inplace",
        "label": "contract IERC20",
        "numberOfBytes": "20"
      },
      "t_contract(IUniswapV2Router02)1181": {
        "encoding": "inplace",
        "label": "contract IUniswapV2Router02",
        "numberOfBytes": "20"
      },
      "t_mapping(t_address,t_struct(UserInfo)1198_storage)": {
        "encoding": "mapping",
        "key": "t_address",
        "label": "mapping(address => struct Staking.UserInfo)",
        "numberOfBytes": "32",
        "value": "t_struct(UserInfo)1198_storage"
      },
      "t_struct(UserInfo)1198_storage": {
        "encoding": "inplace",
        "label": "struct Staking.UserInfo",
        "members": [
          {
            "astId": 1195,
            "contract": "contracts/Staking.sol:Staking",
            "label": "amount",
            "offset": 0,
            "slot": "0",
            "type": "t_uint256"
          },
          {
            "astId": 1197,
            "contract": "contracts/Staking.sol:Staking",
            "label": "rewardDebt",
            "offset": 0,
            "slot": "1",
            "type": "t_uint256"
          }
        ],
        "numberOfBytes": "64"
      },
      "t_uint256": {
        "encoding": "inplace",
        "label": "uint256",
        "numberOfBytes": "32"
      }
    }
  }
}